:03000000020006F5
:03005F0002000399
:030003000202D422
:2000620075B20275B6E10000000000000000000000000000000000000043800275B12090AE
:20008200E6007412F090E6017413F00000000000000000000000000000000000000090E69E
:2000A2000B7403F00000000000000000000000000000000000000090E61474E0F0000000FE
:2000C2000000000000000000000000000000000090E61074A0F00000000000000000000094
:2000E20000000000000000000090E61174A0F0000000000000000000000000000000000073
:20010200000090E61274A2F00000000000000000000000000000000000000090E61374A2B0
:20012200F00000000000000000000000000000000000000090E6047480F00000000000006F
:200142000000000000000000000000000090E6047482F0000000000000000000000000003D
:2001620000000000000090E6047484F000000000000000000000000000000000000000908B
:20018200E6047486F00000000000000000000000000000000000000090E6047488F0000023
:2001A200000000000000000000000000000000000090E604E4F000000000000000000000EF
:2001C2000000000000000000000000000000000000000000000000000000000090E61A7419
:2001E2000DF00000000000000000000000000000000000000090E618E4F00000000000009E
:200202000000000000000000000000000090E619E4F090E61BF090E670F000000000000022
:200222000000000000000000000000000090E6347499F00000000000000000000000000015
:2002420000000000000090E63574F2F000000000000000000000000000000000000000900B
:20026200E6027468F00000000000000000000000000000000000000090E609743FF00000A6
:20028200000000000000000000000000000000000090E6247402F00000000000000000005C
:2002A2000000000000000000000090E625E4F00000000000000000000000000000000000CD
:2002C200000090E6497484F07484F07484F07484F02212006290E6A3E0FF20E2F890F000B5
:2002E200E0FFBF466790E6047480F00000000000000000000000000000000000000090E6DD
:20030200047406F00000000000000000000000000000000000000090E604E4F0000000001F
:20032200000000000000000000000000000000740855B1FF90E7C0F090E68D7440F090E6F6
:20034200A2E0FF20E1F890E68F7401F090F000E0FFBF4102800302041475B121AF8074FDD2
:200362005FF580E58030E0FB75B120E58020E0FB0000000000000000000000000000000091
:200382000000000000000000000000000000000000000000000090E6047480F000000000FD
:2003A20000000000000000000000000000000090E61A7401F0000000000000000000000046
:2003C200000000000000000090E6047406F000000000000000000000000000000000000037
:2003E2000090E61A740DF00000000000000000000000000000000000000090E604E4F000AC
:2004020000000000000000000000000000000000000090F001E0FFBF420280030206AA90B2
:20042200E6047480F00000000000000000000000000000000000000090E6047406F0000008
:20044200000000000000000000000000000000000090E604E4F0000000000000000000004C
:200462000000000000000000000000000000000000000000000000000000000090E68D7403
:2004820040F090E6A1E0FF20E1F890E781E0FE7F0090E780E0FD7C004FF50AEC4EF50B907E
:2004A200E68D7440F0E4F508F50990E6A4E0FB30E20302069C90E694E0FA7B0090E695E04C
:2004C20079004203E9420275B10078007900C3E89BE99A40030205B5888274F429F583E05D
:2004E200FD74805DF5B1ED2DFC741055B1C4540F4CFD43B14074805DF5B1ED2DFF741055D9
:20050200B1C4540F4FFD43B14074805DF5B1ED2DFF741055B1C4540F4FFD43B14074805DEF
:20052200F5B1ED2DFF741055B1C4540F4FFD43B14074805DF5B1ED2DFF741055B1C4540F08
:200542004FFD43B14074805DF5B1ED2DFF741055B1C4540F4FFD43B14074805DF5B1ED2DC7
:20056200FF741055B1C4540F4FFD43B14074805DF5B1ED2DFF741055B1C4540FFE4FFD43FB
:20058200B140888274F829F583EDF0B8011AB900177E007F0075B1000EBE00010FC3EE948D
:2005A20020EF940340EF800375B10008B80001090204D075B12075B1207E007F0075B1204C
:2005C20043B1400EBE00010FC3EE9408EF940040EC75B12090F400E0FF20E70302067B00D7
:2005E20000000000000000000000000000000000000090E6497484F090E61AE4F090E60474
:200602007480F00000000000000000000000000000000000000090E6047486F00000000090
:2006220000000000000000000000000000000090E604E4F00000000000000000000000006A
:20064200000000000000000000000000000000000000000000000000000090E698E4F000B6
:2006620000000000000000000000000000000000000090E699EBF0801900000000000000F5
:2006820000000000000000000000000090E6497484F00508E4B508020509C3E508950AE5BF
:2006A20009950B50030204AC90F001E0FFBF4502800302094190E6047480F00000000000F7
:2006C200000000000000000000000000000090E6047406F000000000000000000000000034
:2006E2000000000000000090E604E4F00000000000000000000000000000000000000000AA
:2007020000000000000000000000000000000000000090E68D7440F090E6A1E0FF20E1F841
:2007220090E781E0FE7F0090E780E0F97C004FF50AEC4EF50B90E68D7440F0E4F508F50908
:2007420090E6A4E0FC30E20302091290E694E0FC790090E695E0F87F0049FBEF4CFA75B10F
:20076200007E007F00C3EE9BEF9A400302084C8E8274F42FF583E0FD74805DF5B1ED2DFC03
:20078200741055B1C4540F4CFD43B14074805DF5B1ED2DFC741055B1C4540F4CFD43B140EE
:2007A20074805DF5B1ED2DFC741055B1C4540F4CFD43B14074805DF5B1ED2DFC741055B165
:2007C200C4540F4CFD43B14074805DF5B1ED2DFC741055B1C4540F4CFD43B14074805DF5F2
:2007E200B1ED2DFC741055B1C4540F4CFD43B14074805DF5B1ED2DFC741055B1C4540F4CF8
:20080200FD43B14074805DF5B1ED2DFC741055B1C4540FF94CFD43B1408E8274F82FF5834E
:20082200EDF0BE011ABF00177C007D0075B1000CBC00010DC3EC9420ED940340EF80037527
:20084200B1000EBE00010F02076790F400E0FF20E7030208F1000000000000000000000031
:20086200000000000000000090E6497484F090E61AE4F090E6047480F0000000000000000D
:2008820000000000000000000000000090E6047486F00000000000000000000000000000F2
:2008A200000000000090E604E4F000000000000000000000000000000000000000000000E8
:2008C2000000000000000000000000000000000090E698E4F0000000000000000000000034
:2008E200000000000000000090E699EBF08019000000000000000000000000000000000073
:20090200000090E6497484F00508E4B508020509C3E508950AE509950B500302074275B1CF
:200922002075B1207E007F0075B12043B1400EBE00010FC3EE9408EF940040EC75B12000BA
:1D09420000000000000000000000000000000000000090E6497482F0E4F00202D744
:06003500E478FFF6D8FD9F
:200013007900E94400601B7A00900963780075A000E493F2A308B8000205A0D9F4DAF27528
:02003300A0FF2C
:20003B007800E84400600A790075A000E4F309D8FC7800E84400600C7900900000E4F0A3C5
:04005B00D8FCD9FAFA
:0D00060075810B12095FE5826003020003A3
:04095F00758200227B
:00000001FF
