:03000000020006F5
:03005F0002000399
:0300030002006296
:2000620090E6007412F090E60174E3F000000000000000000090E60B7403F090E609E4F099
:2000820075B4A075A00075B6FF75B10075AF0790E61074A0F090E61174A0F090E61274A054
:2000A200F090E61474E0F000000000000000000090E60274E8F090E6037406F090E618E467
:2000C200F090E619F090E61A744CF090E61BE4F090E6047480F07402F07406F0E4F090E692
:2000E200497482F07482F07482F07482F075A02000000000000000000090E68D7440F090B1
:20010200E6A1E0FF20E1F890E781E0FE7F0090E780E07C004207EC420690E68D7440F07C36
:20012200007D0090E6A3E0FB30E2030201C990E690E0FA7B0090E691E079004203E942023E
:20014200780079F0899D780079F07900889EEA54FE7049F8F9C3E89BE99A5057E5A030E625
:200162000E75A0200000000000000000008044900001C007C006C005C004C003C002C00189
:20018200C000120216D000D001D002D003D004D005D006D00708B800BC0980B98B828A83FF
:2001A200C007C006C005C004120216D004D005D006D00700000000000000000090E6497474
:2001C20082F00CBC00010DC3EC9FED9E5003020125E5A030E6FB22E5823392A6D2A733C289
:2001E200A792A6D2A733C2A792A6D2A733C2A792A6D2A733C2A792A6D2A733C2A792A6D218
:20020200A733C2A792A6D2A733C2A792A6D2A700C2A72222A882A983C2A7859FB1D2A7D809
:08022200F700D9F400C2A72285
:06003500E478FFF6D8FD9F
:200013007900E94400601B7A0090022E780075A000E493F2A308B8000205A0D9F4DAF27564
:02003300A0FF2C
:20003B007800E84400600A790075A000E4F309D8FC7800E84400600C7900900000E4F0A3C5
:04005B00D8FCD9FAFA
:0D00060075810712022AE5826003020003E3
:04022A0075820022B7
:00000001FF
